:020000040800F2
:10000000180F0020695800087503000877030008DE
:100010007B0300087F030008830300080000000042
:10002000000000000000000000000000870300083E
:1000300089030008000000008B0300088D030008FE
:100040008358000883580008835800088358000824
:100050008358000883580008835800088358000814
:100060008358000883580008835800088358000804
:1000700083580008835800088358000883580008F4
:1000800083580008835800088358000883580008E4
:1000900083580008835800088358000883580008D4
:1000A00083580008835800088358000883580008C4
:1000B000B3120008CB120008E312000883580008AE
:1000C00083580008835800088358000883580008A4
:1000D00083580008DF5700080314000883580008FD
:1000E000A10500088358000883580008131300086E
:1000F0008358000883580008835800088358000874
:100100008358000883580008FB1200088358000831
:100110008358000883580008835800087B1500089E
:100120008358000883580008835800088358000843
:100130008358000883580008835800088358000833
:100140008358000883580008835800088358000823
:100150008358000883580008835800088358000813
:100160008358000883580008835800088358000803
:1001700083580008835800088358000883580008F3
:10018000835800088358000800F002F800F092F845
:100190000AA090E8000C82448344AAF10107DA45E2
:1001A00001D100F087F8AFF2090EBAE80F0013F0A2
:1001B000010F18BFFB1A43F001031847C8C5000020
:1001C000E8C50000103A24BF78C878C1FAD85207B1
:1001D00024BF30C830C144BF04680C6070470000C1
:1001E0000023002400250026103A28BF78C1FBD840
:1001F000520728BF30C148BF0B6070476E2907F017
:10020000A385702907F0238366290AF038816529C0
:100210000AF0358167290AF032816129AFF3008045
:1002200003681B0A28BF41F08001692907F0948206
:10023000642907F09182752907F08E826F2907F0F3
:100240008586782907F0EF82E92907F01F86E429DF
:1002500007F01C86F52907F01986EF2907F082863A
:10026000F82907F0EE820368DB0928BF41F080011E
:10027000632908F00381732908F00881E32908F055
:100280001381F32908F01881002070471FB50AF088
:10029000ECF808F093F904000020002109F048FB75
:1002A000401C60600020002109F02CFBE0601FBDB5
:1002B00010B510BD08F054F91146FFF7E7FF00F044
:1002C00009F808F02DFA03B4FFF7F2FF03BC05F0BC
:1002D00027FA00004FF4A06005F0E6FAA82005F028
:1002E0009DF94FF4E13005F028FA00F08FFA00F0A4
:1002F000ABFA00F0C5FA42F2CF01C72000F052FC81
:1003000000F0A0FC002144F29F1000F0B0FC00219E
:1003100044F29F1000F022FD002144F29F1000F0F3
:1003200074FD002144F29F1000F0BAFD00F012FEAF
:1003300000F080FE01F04CFB01F092FC01F0DFFECA
:1003400004F047F901F04CFC0EE001F09FFC074976
:10035000086007480068012804D10846006800F0DA
:1003600083F901E000F055F9EFE7000020000020DC
:100370000C824142704700BFFEE700BFFEE700BFAE
:10038000FEE700BFFEE77047704770477047000008
:100390000CB50020019000907648006840F4803051
:1003A0007449086000BF7348006800F40030009092
:1003B0000198401C0190009818B90198B0F5A04F21
:1003C000F1D16C48006800F4003010B101200090B9
:1003D00001E0002000900098012846D16548403097
:1003E000006840F08050634940310860624800680E
:1003F00040F44040604908605E48083000685D494C
:10040000083108600846006840F40040086008466B
:10041000006840F4A05008605848091F0860081F91
:10042000006840F08070091F086000BF51480068F4
:1004300000F000700028F9D040F2057050490860C3
:100440004C480830006820F003004A490831086031
:100450000846006840F00200086000BF45480830C8
:10046000006800F00C000828F8D10CBD10B5454814
:10047000006840F47000434908603E48006840F05E
:1004800001003C49086000203A49083108603948B9
:1004900000683D490840374908603C48091D08602C
:1004A000081F006820F48020091F086000203149DF
:1004B0000C310860FFF76CFF4FF000603149803964
:1004C000086010BD70B50020002202230024022124
:1004D000284D08352D6805F00C0020B1042806D001
:1004E000082834D107E02A4D2A4E356033E02A4DE2
:1004F000284E35602FE01F4D2D1D2D68C5F380540B
:100500001C4D2D1D2D6805F03F0154B1224DB5FB4A
:10051000F1F5184E361D3668C6F3881605FB06F24F
:1005200009E01B4DB5FBF1F5124E361D3668C6F3DA
:10053000881605FB06F20F4D2D1D2D68C5F30145EC
:100540006D1C6B00B2FBF3F5124E356003E0104DED
:10055000104E356000BF00BF064D08352D68C5F34D
:1005600003150E4E705D0B4D2D68C540094E35606C
:1005700070BD000000380240007000400854400781
:10058000003C024088ED00E0FFFFF6FE1030002442
:100590000024F4002400002000127A00280000202B
:1005A00010B50748006830B9064A0749074804F003
:1005B00060F801F084F94FF4805005F064FA10BD42
:1005C00030824042100000200C0000200800002073
:1005D000002807DA44F29F12864B1A600244864BC9
:1005E0001A6006E044F29F12834B1A60121A814B84
:1005F0001A60002906DA44F29F12804B5A630A44BB
:100600009A6305E044F29F127C4B9A63521A5A6334
:10061000704700B500210846FFF7DAFF00BD00B5BE
:1006200041F288317648FFF7D3FF00BD00B5744929
:1006300041F28830FFF7CCFF00BD00B54FF47A716E
:1006400041F28830FFF7C4FF00BD00B541F28831A8
:100650004FF47A70FFF7BCFF00BD00B541F288315E
:100660000846FFF7B5FF00BD70B505460024082D0C
:1006700079D2DFE805F004070A0D10134679FFF779
:10068000ECFFAEE0FFF7E1FFABE0FFF7C8FFA8E04B
:10069000FFF7D3FFA5E0FFF7C9FFA2E0594890EDAF
:1006A000000ABDEEC00A10EE104A01E0FFF7B7FFE6
:1006B0005448D0ED000A04F15A0000EE100AB8EEDA
:1006C000C00AF4EEC00AF1EE10FA0BD84D48D0ED96
:1006D000000A00EE104AB8EEC00AF4EEC00AF1EECD
:1006E00010FAE3DAA4F5877000EE100AB8EEC00A3B
:1006F0004448D0ED000AB4EEE00AF1EE10FAD5DA83
:100700006FE0404890ED000ABDEEC00A10EE104ABE
:1007100001E0FFF78BFFA4F15A0000EE100AB8EEDB
:10072000C00A3848D0ED000AB4EEE00AF1EE10FA43
:100730000AD8D0ED000A00EE104AB8EEC00AF4EE76
:10074000C00AF1EE10FAE4D904F5877000EE100A41
:10075000B8EEC00A2B48D0ED000AB4EEE00AF1EE84
:1007600010FAD6D93DE032E0264890ED000ABDEE01
:10077000C00A10EE104A01E0FFF751FF2148D0ED0A
:10078000000A04F1B40000EE100AB8EEC00AF4EE5C
:10079000C00AF1EE10FA0BD81A48D0ED000A00EEAC
:1007A000104AB8EEC00AF4EEC00AF1EE10FAE3DA2D
:1007B000A4F1B40000EE100AB8EEC00A1148D0ED62
:1007C000000AB4EEE00AF1EE10FAD5DA09E00420EE
:1007D00004F086FFFFF71DFF41F2883004F080FF30
:1007E00000BF00BF70BD00B507490846FFF7F0FE27
:1007F00000BD000034440140344801400040014045
:1008000030F8FFFF1000002048F4FFFF1CB5012165
:10081000084605F065FC4FF48050009001208DF8EB
:10082000040000208DF8060003208DF8050001204B
:100830008DF807006946114805F0B4F94FF480516E
:100840000E4805F02BFA1CBD1CB50121084605F029
:1008500047FC4FF48070009001208DF804000020C8
:100860008DF8060003208DF8050001208DF80700A3
:100870006946024805F096F91CBD000000000240E0
:100880001CB50121102005F02BFC01200090002058
:100890008DF8040003208DF8050001208DF8070075
:1008A00069468F4805F07EF91CBD10B5044614B1A9
:1008B00001208C4908708B48007801280AD18A48A9
:1008C000006838B90A2004F00BFF00208549087041
:1008D000012010BD84480068012801D181490870B9
:1008E0000020F6E710B58148007850B17E480068D6
:1008F00038B90A2004F0F4FE00207C490870012079
:1009000010BD79480068012801D17849087000209D
:10091000F6E7002005E0002100E0491C3229FCDB5D
:10092000401C3228F7DB704701466F48006828B941
:100930006F480088401C6E4A108002E000206C4A1C
:1009400010806948006828B96A48007810B9012009
:10095000684A107068480078B0B966480078012885
:1009600007D166480078401C644A10700120624A32
:10097000107062480078022806D100205F4A10708B
:100980005F4A10800220704757480068012804D150
:100990000020584A1070584A1070584800780128B2
:1009A0001CD157480088401C554A108010460088CA
:1009B00088420ADD4E480088884206DA00204F4A05
:1009C00010704F4A10800120DDE7494800888842B6
:1009D00004DD0020494A1070494A10800020D2E707
:1009E00001464148006828B946480088401C454AED
:1009F000108002E00020434A10803B48006828B97C
:100A00004148007810B901203F4A10703F480078F3
:100A1000B0B93D480078012807D13D480078401C16
:100A20003B4A10700120394A10703948007802287A
:100A300006D10020364A1070364A108002207047D6
:100A400029480068012804D100202F4A10702F4A3D
:100A500010702F48007801281CD12E480088401CB7
:100A60002C4A10801046008888420ADD25480088FC
:100A7000884206DA0020264A1070264A108001209B
:100A8000DDE720480088884204DD0020204A1070FD
:100A9000204A10800020D2E71F48008840B9124841
:100AA000006828B91D480088401C1C49088002E0E5
:100AB00000201A490880194800880F2807DD012006
:100AC0001549088000201549088001207047124808
:100AD0000088012802D100200F4908800020F5E796
:100AE000001002403800002000024242390000207D
:100AF000400000203A0000203B0000203C00002085
:100B00003E0000204800002042000020430000205A
:100B100044000020460000204C0000204A00002035
:100B200010B50421454805F016FF4FF4FA7004F0A3
:100B3000D7FD0A21414805F00EFF4FF4FA7004F08A
:100B4000CFFD12213D4805F006FF4FF4FA7004F086
:100B5000C7FD0521394805F0FEFE4FF4FA7004F098
:100B6000BFFD0F21354805F0F6FE4FF4FA7004F092
:100B7000B7FD1921314805F0EEFE4FF4FA7004F08C
:100B8000AFFD08212D4805F0E6FE4FF4FA7004F0A1
:100B9000A7FD1421294805F0DEFE4FF4FA7004F099
:100BA0009FFD10BD30B58BB004460D46012140209D
:100BB00005F0DFFA0121022005F092FA09220F2147
:100BC0001F4805F07AF84FF40040099002208DF894
:100BD000280003208DF8290000208DF82A0001202C
:100BE0008DF82B0009A9164804F0DCFFA8B2ADF877
:100BF00018000020ADF81A000794ADF8200006A9EF
:100C00000E4805F0B8FC6020ADF804000120ADF8F6
:100C100006000020ADF8100001A9084805F079FD94
:100C20000821064805F0D2FE0121044805F00EFD1A
:100C30000121024805F028FD0BB030BD001800402E
:100C4000000402401CB50121082005F049FA0820E3
:100C5000009000208DF8040003208DF8050001208D
:100C60008DF807006946B44804F09CFF1CBD30B500
:100C70008BB005460C460121084605F08BFA012190
:100C8000102005F02DFA01220921AC4805F015F8D5
:100C900001220B21A94805F010F801220D21A748D7
:100CA00005F00BF801220E21A44805F006F84FF4D8
:100CB000D440099002208DF8280003208DF82900E7
:100CC00000208DF82A0001208DF82B0009A99B48EF
:100CD00004F068FF0795ADF818400120ADF820003A
:100CE0000020ADF81A0006A9954805F044FC6020E4
:100CF000ADF804000120ADF806000020ADF81000AA
:100D000001A98F4805F0CCFC01A98D4805F001FD33
:100D100001A98B4805F04AFD01A9894805F0ACFD01
:100D20000121874806F0A1F80821854805F045FE15
:100D30000821834805F04AFE0821814805F053FE4A
:100D400008217F4805F058FE01217D4805F07EFC12
:100D500001217B4805F098FC0BB030BD30B58BB05D
:100D600005460C460121080405F014FA0121102063
:100D700005F0B6F903220521704804F09EFF032216
:100D800006216E4804F099FF6020069002208DF83D
:100D90001C0003208DF81D0000208DF81E0001208E
:100DA0008DF81F0006A9654804F0FCFE0995ADF812
:100DB00020400020ADF82800ADF8220008A96148C5
:100DC00005F0D9FB6020ADF804000120ADF8060065
:100DD0000020ADF8100001A95A4805F061FC01A9F6
:100DE000584805F096FC0821564805F0E6FD082114
:100DF000544805F0EBFD0121524805F027FC012184
:100E0000504805F041FC0BB030BD30B58BB0054605
:100E10000C460121022005F063F90121480405F088
:100E2000B9F903220821484804F047FF02208DF851
:100E30001C0000208DF81E004FF4807006900120E9
:100E40008DF81F0003208DF81D0006A93E4804F010
:100E5000A9FE0995ADF820400020ADF82800ADF8B6
:100E6000220008A9394805F086FB6020ADF804008F
:100E70000120ADF806000020ADF8100001A93348AC
:100E800005F00EFC0821314805F097FD01212F489F
:100E900005F0DCFB01212D4805F0F6FB0BB030BD61
:100EA00030B58BB005460C460121022005F018F93B
:100EB0000121880405F06EF903220921224804F07B
:100EC000FCFE02208DF81C0000208DF81E004FF45F
:100ED0000070069001208DF81F0003208DF81D0082
:100EE00006A9194804F05EFE0995ADF820400020DF
:100EF000ADF82800ADF8220008A9154805F03BFB25
:100F00006020ADF804000120ADF806000020ADF827
:100F1000100001A90E4805F0C3FB08210C4805F09C
:100F20004CFD01210A4805F091FB0121084805F01C
:100F3000ABFB0BB030BD0000000C024000100240C3
:100F40000000014000400140000402400044014014
:100F50000048014000B589B00121084605F009F9B3
:100F60000121032005F0BCF84FF40040019003205C
:100F70008DF8090002208DF8080001208DF80A0084
:100F80008DF80B0001A9E74804F00CFE0820019041
:100F900003208DF8090002208DF8080001208DF84B
:100FA0000A008DF80B0001A9DF4804F0FBFD0122C7
:100FB0000F21DC4804F081FE01220321DA4804F00D
:100FC0007CFE06A805F00BFB0020ADF818004FF6DC
:100FD000FF7007900020ADF82000ADF81A0006A9B8
:100FE0004FF0804005F0C7FA00231A4603214FF066
:100FF000804006F034F803A805F0CBFE0020ADF8E1
:10100000140003A94FF0804005F08CFE01218807F1
:1010100005F066FF01221146900705F04DFF002103
:101020004FF0804005F0F0FA0121880705F02CFB15
:1010300009B000BD00B589B00121022005F099F882
:101040000121022005F04CF83020019003208DF89A
:10105000090002208DF8080001208DF80A008DF8A3
:101060000B0001A9B04804F09DFD02220421AE4806
:1010700004F023FE02220521AB4804F01EFE06A860
:1010800005F0ADFA0020ADF818004FF6FF7007909C
:101090000020ADF82000ADF81A0006A9A34805F01D
:1010A0006AFA00231A460321A04805F0D8FF03A8D6
:1010B00005F06FFE0020ADF8140003A99B4805F071
:1010C00031FE0121994805F00BFF01221146974896
:1010D00005F0F2FE0021954805F096FA01219348AB
:1010E00005F0D2FA09B000BD00B589B00121042095
:1010F00005F03FF80121022004F0F2FFC02001902A
:1011000003208DF8090002208DF8080001208DF8D9
:101110000A008DF80B0001A9834804F043FD022268
:101120000621814804F0C9FD022207217E4804F00F
:10113000C4FD06A805F053FA0020ADF818004FF6DC
:10114000FF7007900020ADF82000ADF81A0006A946
:10115000774805F010FA00231A460321744805F079
:101160007EFF03A805F015FE0020ADF8140003A9CA
:101170006F4805F0D7FD01216D4805F0B1FE012251
:1011800011466B4805F098FE0021694805F03CFACD
:101190000121674805F078FA09B000BD00B589B0B3
:1011A0000121082004F0E5FF0121084604F098FF22
:1011B000022200215B4804F080FD022201215948EF
:1011C00004F07BFD0320019002208DF809008DF8CA
:1011D000080001208DF80A008DF80B0001A9514884
:1011E00004F0E0FC06A805F0FAF90020ADF81800BC
:1011F0004FF6FF7007900020ADF82000ADF81A0000
:1012000006A94C4805F0B7F900231A4603214948BE
:1012100005F025FF03A805F0BCFD0020ADF8140083
:1012200003A9444805F07EFD0121424805F058FE1F
:10123000012211463F4805F03FFE00213D4805F0E0
:10124000E3F901213B4805F01FFA09B000BD014652
:10125000022906D003290DD0042914D0052924D150
:101260001AE04FF08042526A10B200224FF08043E1
:101270005A621CE02D4A2432126810B200222B4B15
:1012800024331A6013E02A4A2432126810B2002272
:10129000274B24331A600AE0264A2432126810B21F
:1012A0000022244B24331A6001E0002000BF00BF5D
:1012B00070474FF08040008A4FF08040008A20F055
:1012C00001004FF0804108827047184810300088B4
:1012D00016481030008820F00100144910310880B1
:1012E000704713481030008811481030008820F0F3
:1012F00001000F491031088070470E4810300088F7
:101300000C481030008820F001000A491031088094
:101310007047094800880848008820F00100064905
:1013200008807047000002400004024000040040B2
:1013300000080040000C0040101800400FB438B501
:1013400005A800909748009A049906F0BFF900207C
:101350000090944806F076FB85B200240DE000BFB3
:101360004021914806F076F80028F9D08D48015DBB
:101370008D4805F0BFFF601C84B2AC42EFDB38BC87
:101380005DF814FB70B500258848008800F4004023
:10139000002835D085480088C0F30E050020844918
:1013A000485584A0FFF7CAFF00240DE08048015D86
:1013B0007D4805F09FFF00BF40217B4806F04AF8BA
:1013C0000128F9D1601C84B2AC42EFDB052D01D0BD
:1013D000062D0FD17DA1764806F05CFB10B90020E8
:1013E0007C4908607CA1724806F054FB10B90120CA
:1013F000784908607AA0FFF7A1FF00206B490880B8
:1014000070BD10B540F22551674806F039F800B3B9
:10141000654805F073FFC4B26448008800F40040DA
:10142000B8B962480088B0F5C87F13DA00216E4869
:1014300005F0EAF85D48008818B901216A4805F00E
:1014400023F95A4801880088401C584A108058489F
:10145000445405E05548008840F400405349088052
:1014600010BD7FB505460C460121202004F081FE09
:101470000195ADF800400020ADF80800ADF802007D
:101480006946594805F077F801221146564805F09B
:1014900013FD0121544805F0F7F837208DF80C00B2
:1014A00000208DF80D0001208DF80E008DF80F0042
:1014B00003A804F0FEF97FBD10B588B004463A4891
:1014C00005F0FEFD0121082004F00AFE0121480478
:1014D00004F04FFE6020059002208DF818008DF872
:1014E000190000208DF81A0001208DF81B0005A9B5
:1014F0003E4804F057FB072205213C4804F0DDFB81
:1015000007220621394804F0D8FB01940020ADF8E9
:101510000800ADF80A00ADF80C00ADF810000C2082
:10152000ADF80E0001A9204805F031FE012240F27D
:1015300025511D4805F069FF01211B4805F0AFFE4C
:1015400026208DF81C0002208DF81D0003208DF848
:101550001E0001208DF81F0007A804F0AAF942F22E
:10156000CF016320FFF77DFF00211F4805F08CF8B5
:1015700000200E49088008B010BD10B501211A489E
:1015800005F0B1FC68B10948008840F40040074903
:1015900008800121144805F0B7FC0021124805F02D
:1015A00073F810BDC0000020004400404E00002031
:1015B000500200200D0AC4FAB7A2CBCDB5C4CFFBB0
:1015C000CFA2CEAA3A0D0A0D0A0000004C45444FA6
:1015D0004E000000B00240424C45444F46460000D9
:1015E0000D0A0D0A0000000000140040000C02402B
:1015F00010B50A461AB10123FE4C236002E0002315
:10160000FC4C2360002116E00023FA4C0C342360CC
:1016100000F080031BB10123241F236003E000239B
:10162000F44C083423600123F24C0C34236043064D
:10163000180E4B1CD9B20829E6DB0123ED4C2360C0
:1016400010BD30B500241CE004F1B001C8B2002187
:10165000FFF7CEFF00210846FFF7CAFF0021102048
:10166000FFF7C6FF002508E0E34901EBC501085D6F
:101670000121FFF7BDFF681CC5B2802DF4DB601CA3
:10168000C4B2082CE0DB30BDF0B5144600267F283C
:1016900001DC3F2900DDF0BD0B46CF1701EB57778A
:1016A000FF10C7F10707FAB2CF1701EB5777FF100A
:1016B000A1EBC707FDB2C5F107070123BB40DEB2AE
:1016C0004CB1CD4B03EBC0039B5C3343CA4F07EBDC
:1016D000C007BB5408E0C84B03EBC0039B5CB3439B
:1016E000C54F07EBC007BB5400BFD4E72DE9F04F4F
:1016F00080460C4615461E46A346A5F12000C5B2FD
:1017000000273EE00C2E07D105EB4500BB4901EB5D
:10171000800010F8079004E0B94800EB051010F8BD
:1017200007904FF0000A26E009F0800028B121461A
:101730004046099AFFF7A8FF09E0099808B9012077
:1017400000E00020024621464046FFF79DFF4FEA99
:1017500049604FEA1069601CC4B2A4EB0B00B042B0
:1017600005D15C4608F1010000F0FF0806E00AF12F
:10177000010000F0FF0ABAF1080FD5DB00BF781CAA
:10178000C7B2B742BEDBBDE8F08F10B502460120FC
:1017900000E050430B1EA1F10104E1B2F9D110BDEC
:1017A0002DE9FF4F81B0074691461E460E9D4FF032
:1017B000000A002439E0301B401EC1B20A20FFF7A6
:1017C000E4FFB9FBF0F00A21B0FBF1F201FB1208D3
:1017D000BAF1000F16D1701EA04213DDB8F1000F50
:1017E0000ED10120AB4605EBDB71491001FB047102
:1017F0000090C8B22B4620220299FFF777FF12E033
:101800004FF0010A0120AB4605EBDB71491001FBEB
:1018100004710090C8B208F13001CAB22B46029997
:10182000FFF764FF00BF601CC4B2B442C3DB05B065
:10183000BDE8F08F30B500240CE0002506E0002064
:101840006D4901EBC5010855681CC5B2802DF6DB5A
:10185000601CC4B2082CF0DBFFF7F3FE30BD78B596
:1018600005460E46144618E07A2D03DD002506F1E4
:101870001000C6B23A2E04DD002005460646FFF7EA
:10188000D9FF0120009022780C2331462846FFF72B
:101890002DFF05F10800C5B2641C20780028E3D1B3
:1018A00078BD00B500218D20FFF7A2FE0021142095
:1018B000FFF79EFE0021AF20FFF79AFE00BD08B59E
:1018C0000220FFF7C4FC4F4908600320FFF7BFFC6C
:1018D0004D490860FFF7E5FF4CA200213220FFF7D9
:1018E000BEFF1020032300904A48002102685F20B9
:1018F000FFF756FF48A20F210020FFF7B0FF10208E
:10190000032300903F480F2102685F20FFF748FF44
:1019100044A21E210020FFF7A2FF10200323009005
:1019200039481E2102685F20FFF73AFF40A22D21AF
:101930003220FFF794FF404890ED000AB5EEC00A50
:10194000F1EE10FA13DB3DA22D215A20FFF787FF9D
:10195000102003230090384890ED000ABCEEC00A26
:1019600010EE102A2D215F20FFF71AFF16E034A297
:101970002D215A20FFF773FF102000902E4890ED84
:10198000000AFFEE000A20EE200ABCEEC00A10EEAC
:10199000102A03232D215F20FFF702FF10200323CD
:1019A000009018482D2102680020FFF7F9FEFFF78C
:1019B00048FE08BD00B500218D20FFF719FE00216B
:1019C0001020FFF715FE0021AE20FFF711FE00BD2D
:1019D0001CB50121082004F083FB4FF4F040009077
:1019E00001208DF8040000208DF806008DF8050018
:1019F00028E00000AC824142E003002082A40008FD
:101A0000F6A800080000002004000020666C616752
:101A10003A00000020000020206465636F64657256
:101A20005F6C3A00206465636F6465725F723A00B0
:101A3000207961773A000000100000202B000000A0
:101A40002D0000008DF807006946614804F0AAF8EF
:101A50000121080704F08DFB012005F066FD002040
:101A600004F0DBF9002005F060FD00205949086012
:101A7000642003F035FE01205749C1F8B00200216F
:101A8000AE20FFF7B5FD0021D520FFF7B1FD002105
:101A90005020FFF7ADFD0021A820FFF7A9FD002190
:101AA0003F20FFF7A5FD0021D320FFF7A1FD002176
:101AB0000846FFF79DFD00214020FFF799FD00211A
:101AC0008D20FFF795FD00211420FFF791FD0021E7
:101AD0002020FFF78DFD00210220FFF789FD002166
:101AE000A120FFF785FD0021C020FFF781FD002127
:101AF000DA20FFF77DFD00211220FFF779FD00219C
:101B00008120FFF775FD0021EF20FFF771FD002117
:101B1000D920FFF76DFD0021F120FFF769FD0021BD
:101B2000DB20FFF765FD00213020FFF761FD00217C
:101B3000A420FFF75DFD0021A620FFF759FD00213D
:101B4000AF20FFF755FDFFF775FE1CBD30B504460D
:101B50000D4605F1B001C8B20021FFF749FD102183
:101B600041EA14100021FFF743FD04F00F000021AB
:101B7000FFF73EFD30BD2DE9F04F83460F469046FE
:101B80009946099C00251AE07819C1B25846FFF71A
:101B9000DDFF00260FE0A246E11704EB5171C910EA
:101BA00001FB08510D4A02EB0111885D0121FFF78D
:101BB0001FFD701CC6B24E45EDDB681CC5B2E117B7
:101BC00004EB5171B5EBE10FDEDBBDE8F08F0000F7
:101BD000000C0240B082414200804142E6AE000863
:101BE00000B585B00121022004F07AFA01218803B2
:101BF00004F0D0FA0C21012004F0D7FB4FF4805000
:101C0000039000208DF8100003208DF811000220B1
:101C10008DF8130003A9114803F0C4FF4FF480505E
:101C2000019000208DF808000C208DF8090001209B
:101C30008DF80A0001A803F0B5FE28208DF80000F9
:101C400002208DF8010001208DF802008DF80300BC
:101C5000684603F02EFE05B000BD000000040240FF
:101C60001CB50121084604F03BFA42F2CC0000907A
:101C700000208DF8040003208DF8050001208DF868
:101C800007006946D14803F08DFF1CBD10B5D04850
:101C90000068B8B9CE482C38006898B9CC482838C4
:101CA000006878B9CA481C38006858B9C84818385C
:101CB000006838B9C7480068401CC6490860192048
:101CC00003F0C6FCC2480068C8B9C1482C38006897
:101CD000A8B9BF482838006888B9BD481C380068D2
:101CE00001280CD1BA4818380068012807D1BA4831
:101CF0000068401CB8490860192003F0A9FCB448EA
:101D00000068D0B9B2482C380068B0B9B04828385B
:101D10000068012811D1AE481C38006801280CD198
:101D2000AB4818380068012807D1AB480068401C50
:101D3000A9490860192003F08BFCA5480068A8B9E0
:101D4000A3482C380068012810D1A1482838006821
:101D500001280BD19E481C380068012806D19C48F8
:101D600018380068012801D1022010BD9848006889
:101D7000012812D196482C38006870B99448283848
:101D8000006850B992481C380068012805D1904875
:101D900018380068012800D1E7E78D48006801285D
:101DA00013D18B482C38006878B9894828380068E6
:101DB00001280AD186481C380068012805D18448CA
:101DC00018380068012800D1CFE781480068012851
:101DD00018D17F482C380068012813D17C48283856
:101DE000006878B97A481C38006858B978481838BB
:101DF000006838B979480068401C784908601920A3
:101E000003F026FC72480068012813D170482C3872
:101E1000006801280ED16E482838006850B96C4817
:101E20001C38006830B96A4818380068012801D1A8
:101E300003209AE766480068012814D164482C38CA
:101E4000006801280FD162482838006858B96048F6
:101E50001C380068012806D15D4818380068012840
:101E600001D1002081E75A480068012819D158485B
:101E70002C380068012814D15548283800680128FA
:101E80000FD153481C38006858B9514818380068B9
:101E900038B952480068401C50490860192003F0C6
:101EA000D7FB4B480068012814D149482C380068FA
:101EB00001280FD146482838006801280AD1444833
:101EC0001C38006830B9424818380068012801D130
:101ED00003204AE73E480068012814D13C482C38CA
:101EE000006801280FD13A482838006801280AD133
:101EF00037481C380068012805D135481838006873
:101F000008B9042031E732480068012815D130486B
:101F10002C380068012810D12D4828380068012885
:101F20000BD12B481C380068012806D128481838E6
:101F30000068012801D1002017E7294800682649D8
:101F4000096888420ED024480068012803D022483E
:101F50000068022806D122480068401C2049086019
:101F6000052002E71F4800681C49096888420ED016
:101F70001A480068012803D018480068022806D1D2
:101F800018480068401C174908600620EDE616480E
:101F9000006810490968884215D00E480068012879
:101FA00006D111480068401C0F4908600720DCE694
:101FB00008480068022806D10B480068401C0A49FE
:101FC00008600820D1E60020CFE6000000000240B3
:101FD00034024042640000205C00002060000020C9
:101FE00050000020540000205800002070B5054625
:101FF0000C4600F0DCF9D02000F085FA00F018FA69
:1020000018B100F0F6F9012070BD284600F07BFA07
:1020100000F00EFA204600F076FA00F009FA18B146
:1020200000F0E7F90120EFE700F0E3F90020EBE72B
:1020300070B504460025BC2C01DB012510E0622CA4
:1020400001DB02250CE02A2C01DB032508E0142C1F
:1020500001DB042504E00A2C01DB052500E0062550
:1020600029461A20FFF7C2FF70BD70B50446B4F5CB
:102070007A7F01DD4FF47A74042C00DA04244FF4E3
:102080007A7090FBF4F0401EC5B229461920FFF784
:10209000ADFF0546264604EBD671C1F34F00FFF7AE
:1020A000C7FF70BD70B5044600F081F9D02000F084
:1020B0002AFA00F0BDF9204600F025FA00F0B8F940
:1020C00000F075F9D12000F01EFA00F0B1F90020FF
:1020D00000F046FA054600F08CF9284670BD10B5B0
:1020E0000446E006010E1C20FFF780FF10BD10B56E
:1020F0000446E006010E1B20FFF778FF10BD10B567
:1021000000F036F980216B20FFF770FF642003F0A8
:10211000E7FA00216B20FFF769FF0320FFF7E7FFD5
:102120000020FFF7DCFF3220FFF79FFF002138205F
:10213000FFF75CFF00216A20FFF758FF00212320F2
:10214000FFF754FF80213720FFF750FF7520FFF77E
:10215000A9FF0446682C0BD101216B20FFF746FF35
:1021600000216C20FFF742FF3220FFF77EFF01E0E5
:10217000012010BD0020FCE72DE9F04106460F4686
:1021800014461D4600F013F9002141EA4601C8B289
:1021900000F0B9F900F04CF920B100F02AF9012063
:1021A000BDE8F081384600F0AEF900F041F900F0EA
:1021B000FEF8012101EB4601C8B200F0A4F900F0DD
:1021C00037F90DE0012C04D1002000F0C9F9287086
:1021D00003E0012000F0C4F92870601EC4B26D1C39
:1021E000002CEFD100F005F90020D9E710B52DED56
:1021F000088B82B001AB022241216820FFF7BCFFAF
:102200009DF805009DF8041040EA012004B2204624
:1022100007F0E2FD41EC1B0B9FED500B53EC102B34
:1022200007F082FC41EC1A0B9FED4E0B53EC102B88
:1022300007F0D2FB41EC190B07F09CFB08EE100AEB
:102240009FED4A0A28EE000ABDEEC00A10EE100A01
:1022500000B202B0BDEC088B10BD2DE9FC41044674
:102260000D4616466B46062243216820FFF784FF81
:102270000746BFB99DF801009DF8001040EA012013
:1022800000B220809DF803009DF8021040EA012072
:1022900000B228809DF805009DF8041040EA012056
:1022A00000B230803846BDE8FC812DE9FC4104468F
:1022B0000D4616466B4606223B216820FFF75CFF61
:1022C0000746BFB99DF801009DF8001040EA0120C3
:1022D00000B220809DF803009DF8021040EA012022
:1022E00000B228809DF805009DF8041040EA012006
:1022F00000B230803846BDE8FC812DE9F04105464A
:102300000E461746984600F052F8002141EA450172
:10231000C8B200F0F8F800F08BF820B100F069F8CE
:102320000120BDE8F081304600F0EDF800F080F8C3
:1023300000240CE018F8040000F0E5F800F078F84C
:1023400018B100F056F80120EBE7601CC4B2BC42A3
:10235000F0DB00F04EF80020E3E700000000000092
:1023600000407540A4703D0AD74342400000C84277
:102370001CB50121022003F0B3FE4FF44060009031
:1023800001208DF8040000208DF8060003208DF850
:10239000050001208DF807006946894803F002FC1A
:1023A0000120884908608849C1F8AC021CBD10B5FD
:1023B0008348006820F440008149086008460068AE
:1023C00040F48000086001207E49091D08607E49B4
:1023D000C1F8A802042003F03BF900207949091D47
:1023E0000860042003F034F900207749C1F8A802FE
:1023F00010BD10B57248006820F4400070490860B4
:102400000846006840F48000086000206D490860BC
:102410006D49C1F8AC02042003F01AF901206949A2
:1024200008606949C1F8AC02042003F011F910BD3D
:1024300010B500246248006820F44000604908603C
:1024400008460068086001205E49091D086003F025
:10245000FFF801205C49C1F8A80203F0F9F807E091
:10246000601CC4B2FA2C03DDFFF7C3FF012010BDCE
:1024700054487C3800680028F2D15249086000BFF7
:10248000F5E710B500204F4908604D48006820F47A
:1024900040004B4908600846006840F4800008602E
:1024A00000204949C1F8AC02022003F0D1F8012014
:1024B00044490860022003F0CBF800204249C1F8EB
:1024C000A80210BD10B500203E4908603C480068D5
:1024D00020F440003A4908600846006840F4800053
:1024E000086001203849C1F8AC02022003F0B0F8BE
:1024F000012034490860022003F0AAF80020324984
:10250000C1F8A80210BD70B504462D48006820F43B
:1025100040002B4908600846006840F480000860CD
:10252000002028490860002517E0E0092549091D19
:1025300008606006040E022003F08AF80120224998
:10254000C1F8A802022003F083F800201D490860AA
:10255000022003F07DF8681CC5B2082DE5DB70BDD4
:1025600070B5054600241648006820F44000144960
:102570000860084600680860002616E0002011493F
:102580000860022003F064F801200F49C1F8A80296
:102590006006040E0B487C38006808B1601CC4B2A9
:1025A000012003F055F8701CC6B2082EE6DB15B901
:1025B000FFF788FF01E0FFF764FF204670BD0000D1
:1025C00000040240A88240420080404238B50446E0
:1025D000F74890F82400C0B114B10220009001E047
:1025E00000200090F24A1268D17BF14A52681078BC
:1025F0006B460122FFF781FE10B14FF0FF3038BD6E
:102600009DF80010EA48417423E0E948807A10B947
:102610004FF0FF30F3E724B1E548407C08B10020DB
:10262000EDE714B10120009001E000200090E04AA5
:102630001268D17BDE4A526810786B460122FFF7A0
:102640005CFE10B14FF0FF30D9E79DF80010D8487C
:1026500041740020D3E738B500241FE0D448006857
:10266000C07AA04204D0D2480068407DA04200D188
:1026700012E0CF49496808786B4601222146FFF7EE
:102680007BFD10B14FF0FF3038BD9DF80020214692
:10269000C8A005F02DF800BF601CC4B2C448406853
:1026A0000079A042DADC0020EEE770B504460D4662
:1026B000BF480068C07AA04204D0BD480068407D91
:1026C000A04202D14FF0FF3070BDB9484068007998
:1026D000A04202DC4FF0FF30F6E7B54949680878C0
:1026E0002B4601222146FFF747FDEDE738B50446AA
:1026F000AF4890F82300A04201D1002038BD14B1AA
:102700003020009001E000200090A948807C20B19A
:102710009DF8000040F002000090A54890F82200CB
:1027200020B19DF8000040F080000090A04A12689F
:10273000117D9F4A526810786B460122FFF7DDFD3C
:1027400010B14FF0FF30D9E7994880F823400020BE
:10275000D4E738B5044604F0700010B101200090B1
:1027600005E014B10020009001E040200090904A64
:102770001268917C8E4A526810786B460122FFF7EE
:10278000BCFD20B100218A488172481E38BD9DF8E9
:10279000000020F04001864801730020009004F002
:1027A000400020B99DF8000040F00400009004F0C3
:1027B000200020B99DF8000040F00200009004F0D5
:1027C000100020B99DF8000040F00100009004F0D6
:1027D000080020B99DF8000040F038000090744ACD
:1027E0001268D17C724A526810786B460122FFF75A
:1027F00084FD20B100216E488172481EC6E724B1D5
:10280000082C02D00020FFF771FF69488472002174
:102810000175322002F064FF0020B7E738B50446A6
:102820006348807CA04201D1002038BD002C46D0F6
:102830005F4A126811795E4A526810786B4601222D
:10284000FFF79AFC10B14FF0FF30EEE79DF8000063
:1028500020F020000090564A12681179544A5268BC
:1028600010786B460122FFF748FD10B14FF0FF30A2
:10287000DBE7032002F034FF022000904C4890F880
:10288000220020B19DF8000040F0800000904848F0
:1028900090F8230020B19DF8000040F03000009037
:1028A000434A1268117D424A526810786B460122F1
:1028B000FFF723FD002851D04FF0FF30B5E73C4A29
:1028C000126811793A4A526810786B460122FFF774
:1028D00053FC10B14FF0FF30A7E73548807A00F085
:1028E000010028B19DF8000040F02000009004E0B5
:1028F0009DF8000020F0200000902D4A1268117908
:102900002B4A526810786B460122FFF7F6FC10B193
:102910004FF0FF3089E7032002F0E2FE244890F8F0
:10292000220010B18020009001E00020009020489B
:1029300090F8230020B19DF8000040F03000009096
:102940001B4A1268117D1A4A526810786B460122A0
:10295000FFF7D3FC10B14FF0FF3066E714488474E2
:10296000002062E708B51248807A10B94FF0FF30B6
:1029700008BD002000900E4A1268D17B0C4A5268B4
:1029800010786B460122FFF7B8FC10B14FF0FF3012
:10299000EEE7074A12685179054A526810786B468B
:1029A0000122FFF7AAFC68B14FF0FF30E0E700001A
:1029B00068000020252335783A20252335780D0A34
:1029C00000000000F84A12681179F74A526810783E
:1029D0006B460122FFF791FC10B14FF0FF30C7E7C3
:1029E000F14890F82400002853D00C200090EE4AC3
:1029F00012681179EC4A526810786B460122FFF791
:102A00007CFC10B14FF0FF30B2E7322002F068FEDC
:102A1000C0200090E448807A00F0010020B19DF8C9
:102A2000000040F020000090DF4A12681179DE4A71
:102A3000526810786B460122FFF75FFC10B14FF02F
:102A4000FF3095E7D848407C10B10220009001E0AB
:102A500000200090D44A1268D17BD34A5268107883
:102A60006B460122FFF749FC10B14FF0FF307FE7C2
:102A700000200090CC4A12685179CB4A52681078F5
:102A80006B460122FFF739FC002855D04FF0FF308C
:102A90006EE704200090C44A12681179C24A526855
:102AA00010786B460122FFF728FC10B14FF0FF3081
:102AB0005EE7BD48807C20B9BB48807A00F0010009
:102AC00010B94020009001E060200090B64A1268E2
:102AD0001179B54A526810786B460122FFF70DFC58
:102AE00010B14FF0FF3043E7322002F0F9FDAE485D
:102AF000407C10B10120009001E000200090AA4A23
:102B00001268D17BA84A526810786B460122FFF701
:102B1000F4FB10B14FF0FF302AE7A34A1268517955
:102B2000A14A52681078A04B10330122FFF7E5FB51
:102B300010B14FF0FF301BE7002019E770B50446D5
:102B4000002624F00104984890F8240008B10020E1
:102B500070BD9548807A10B94FF0FF30F8E7924881
:102B6000057C807A2040904908740846007CA04289
:102B700002D04FF0FF3600E0002614B98A48007DED
:102B800018B10120FFF722FD02E00020FFF71EFD33
:102B90003CB1FFF7E7FE20B1834805744FF0FF30EA
:102BA000D6E73046D4E738B504467F48807A10B976
:102BB0004FF0FF3038BDBC2C02DB0120009015E047
:102BC000622C02DB0220009010E02A2C02DB0320A2
:102BD00000900BE0142C02DB0420009006E00A2C8D
:102BE00002DB0520009001E0062000906E48C07ACC
:102BF0009DF80010884201D10020DBE76A4A126884
:102C00009178694A526810786B460122FFF775FB8C
:102C100010B14FF0FF30CDE79DF800106248C1724F
:102C20000020C7E738B50446282C02DD4FF0FF30FE
:102C300038BDDCB90020FFF759FD00208DF80000F9
:102C400007208DF80100584A1268917C564A526854
:102C500010786B460222FFF750FB10B14FF0FF30A7
:102C6000E6E70021504801750020E1E70120FFF769
:102C70003DFD20208DF80000012C06D100208DF8AC
:102C800001000520FFF78FFF17E0052C06DC01206F
:102C90008DF801000520FFF786FF0EE0142C06DCFE
:102CA00002208DF801000A20FFF77DFF05E00320D8
:102CB0008DF801001420FFF776FF9DF80100072131
:102CC00001EB8010C0B28DF80100374A1268917C88
:102CD000354A526810786B460222FFF70EFB10B19E
:102CE0004FF0FF30A4E708212F48817200210173C3
:102CF000012101750020FFF721FF002098E738B57A
:102D000004462948807A10B94FF0FF3038BD264874
:102D100090F8240010B14FF0FF30F7E72248007D13
:102D200050B134B1282C04DCE0B2FFF77BFF002067
:102D3000ECE70020FFF776FF042C01DA042404E01E
:102D4000B4F57A7F01DD4FF47A744FF47A7090FB1A
:102D5000F4F0401EC0B20090134A12685178124A33
:102D6000526810786B460122FFF7C7FA10B14FF096
:102D7000FF30CBE79DF80000401C4FF47A7191FBC7
:102D8000F0F081B20848C1810146C9894810FFF7B7
:102D90000AFF0020BAE738B504460348807A28B90C
:102DA0004FF0FF3038BD000068000020022C06D034
:102DB000042C07D0082C08D0102C0CD108E00020DF
:102DC00000900BE00820009008E01020009005E043
:102DD0001820009002E04FF0FF30E3E700BFF74813
:102DE000407A9DF80010B0EBE10F01D10020D9E747
:102DF000F24A1268D179F14A526810786B46012282
:102E0000FFF77BFA10B14FF0FF30CBE79DF80000E1
:102E1000C110EA4841720020C4E738B50446E748CB
:102E2000807A10B94FF0FF3038BDFA2C09D0B4F5D4
:102E3000FA7F09D0B4F57A7F09D0B4F5FA6F0CD1D6
:102E400008E0002000900BE00820009008E010202F
:102E5000009005E01820009002E04FF0FF30E3E71B
:102E600000BFD648007A9DF80010B0EBE10F01D109
:102E70000020D9E7D14A12689179D04A5268107877
:102E80006B460122FFF739FA10B14FF0FF30CBE764
:102E90009DF80000C010C94908720020C4E71CB5A5
:102EA00080208DF80000C54A1268917CC34A5268A0
:102EB00010786B460122FFF720FA10B14FF0FF3077
:102EC0001CBD642002F00CFC00208DF80000BB4A01
:102ED0001268917CB94A526810786B460122FFF75C
:102EE0000CFA10B14FF0FF30EAE7B44A1268917D56
:102EF000B24A526810786B460622FFF73DF910B1CE
:102F00004FF0FF30DCE79DF80500C007400F9DF84B
:102F1000031001F0010140EA41009DF8011001F0A9
:102F2000010140EA010494B1012C03D10121A3481D
:102F3000C17431E0022C03D10021A048C1742BE000
:102F400021469FA004F0D4FB4FF0FF30B8E79B4A26
:102F50001268D178994A526810786B460122FFF7BF
:102F60000BF910B14FF0FF30AAE79DF8000000F018
:102F70000F042CB99C4804F0BBFB4FF0FF309FE7D7
:102F8000042C06D199A004F0B3FB01218B48C17435
:102F900002E000218948C174FF2188488172FF2026
:102FA00086490872FF2185484172C1724FF6FF7150
:102FB000C181FF21017481740121017380F8221005
:102FC000002180F8231041750175163001604160C1
:102FD0008160163880F8241080F82510C1844FF4E1
:102FE000FA60FFF71AFF10B14FF0FF3068E70220D8
:102FF000FFF7D1FE10B14FF0FF3061E72A20FFF755
:10300000D2FD10B14FF0FF305AE73220FFF777FEC4
:1030100010B14FF0FF3053E70020FFF78FFD10B1E4
:103020004FF0FF304CE70020FFF7F8FB10B14FF0F6
:10303000FF3045E70020FFF78CFB002040E770479A
:103040007CB504460D465D48807A00F0700010B9EA
:103050004FF0FF307CBD594A1268117B574A5268C5
:1030600010786B460622FFF787F810B14FF0FF305B
:10307000F0E79DF801009DF8001040EA012000B241
:1030800020809DF803009DF8021040EA012000B264
:1030900060809DF805009DF8041040EA012000B210
:1030A000A08015B12846FFF7CAFF0020D2E77CB503
:1030B00004460D464148807A00F0080010B94FF0F0
:1030C000FF307CBD3D4A1268517B3C4A5268107803
:1030D0006B460622FFF750F810B14FF0FF30F0E7D3
:1030E0009DF801009DF8001040EA012000B2208008
:1030F0009DF803009DF8021040EA012000B26080B4
:103100009DF805009DF8041040EA012000B2A0805F
:1031100015B12846FFF793FF0020D2E7F8B5064621
:103120000C462648807A10B94FF0FF30F8BD234A8C
:103130001268917B214A526810786B460222FFF791
:103140001BF810B14FF0FF30F0E79DF801009DF83B
:10315000001040EA012005B214B12046FFF76FFFCE
:1031600016484068B0F9080000EE100AF8EEC00AF0
:1031700000EE105AB8EEC00A70EE600A0F484068C0
:10318000C08800EE100AB8EE400A80EE801A9FED6B
:103190001F0A31EE000ADFED1E0A20EE200ABDEE06
:1031A000C00A86ED000A0020C0E710B588B00446CA
:1031B0001CB94FF0FF3008B010BD2BE068000020B4
:1031C000556E737570706F7274656420736F66747A
:1031D000776172652070726F6475637420726576B2
:1031E0002025642E0A00000034C7000848616C6680
:1031F0002073656E73697469766974792070617281
:103200007420666F756E642E0A00000000000C4288
:1032100000008047206830B9606820B9A06810B904
:10322000002008B010BDF9494968087806AB0322B0
:103230001146FEF7A1FF10B14FF0FF30F1E79DF806
:103240001800082101EB201000F00F00ADF800007D
:103250009DF8190001EB201000F00F00ADF80200FE
:103260009DF81A0001EB201000F00F00ADF80400EB
:1032700020684100BDF90000403091FBF0F000B241
:10328000ADF8100060684100BDF90200403091FBCC
:10329000F0F000B2ADF81200A0684100BDF90400E2
:1032A000403091FBF0F000B2ADF81400D749496806
:1032B000087806AB06221146FEF75EFF10B14FF00C
:1032C000FF30AEE79DF819009DF8181040EA012084
:1032D00000B2ADF808009DF81B009DF81A1040EAF6
:1032E000012000B2ADF80A009DF81D009DF81C10E9
:1032F00040EA012000B2ADF80C00BDF81000BDF8A6
:103300000810084400B2ADF81000BDF81200BDF876
:103310000A10084400B2ADF81200BDF81400BDF860
:103320000C10084400B2ADF81400BDF81000000AFB
:103330008DF81800BDF81000C0B28DF81900BDF866
:103340001200000A8DF81A00BDF81200C0B28DF804
:103350001B00BDF81400000A8DF81C00BDF8140015
:10336000C0B28DF81D00A9494968087806AB06224D
:103370001146FEF7C2FF10B14FF0FF3051E70020B9
:103380004FE70146A148007A30B1012807D0022852
:1033900009D003280FD10AE0FA2008800EE04FF48C
:1033A000FA7008800AE04FF47A70088006E04FF463
:1033B000FA60088002E00020088000BF00BF002003
:1033C000704701469148407A30B1012807D0022861
:1033D00008D003280CD108E0022008700BE004207C
:1033E000087008E00820087005E01020087002E06E
:1033F0004FF0FF30704700BF8448C07C18B1087898
:103400004006000E08700020F4E701467F48C07AAD
:10341000082817D2DFE800F01704070A0D10131868
:10342000BC20088013E06220088010E02A20088079
:103430000DE0142008800AE00A20088007E005203B
:10344000088004E000BF00BF0020088000BF00BF6C
:103450000020704701466D4890F8240010B14FF0ED
:10346000FF3070476948C08908800020F9E70146AD
:1034700000200880401E704701464FF0FF30704723
:1034800001466248007A30B1012809D002280CD0E8
:10349000032814D10EE09FED5E0A81ED000A11E0D1
:1034A0009FED5C0A81ED000A0CE09FED5B0A81ED67
:1034B000000A07E09FED590A81ED000A02E04FF093
:1034C000FF30704700BF0020FBE701464F48407ABD
:1034D00030B1012808D002280AD0032810D10BE00F
:1034E0004FF4804008800EE041F69C7008800AE0AE
:1034F0004FF48050088006E04FF40060088002E03E
:103500004FF0FF30704700BF4048C07C10B10888C2
:10351000401008800020F5E701463C48007C087018
:103520000020704701463948807A10B101200870A8
:1035300001E0002008700020704738B50446334889
:10354000807A10B94FF0FF3038BD304A1268117CD4
:103550002E4A526810786B460222FEF70DFE10B11B
:103560004FF0FF30F0E79DF801009DF8001040EAB1
:10357000012000B220800020E6E72DE9FE4F07463B
:10358000884692461D46DDF830B0002600241F48CC
:1035900090F8240010B1601EBDE8FE8F0020287056
:1035A0001A48807A10B94FF0FF30F5E71748007CD1
:1035B00010B94FF0FF30EFE71448007C00F04000F6
:1035C00008B1B01CC6B21148007C00F0200008B160
:1035D000B01CC6B20D48007C00F0100008B1B01C51
:1035E000C6B20A48007C00F0080008B1B01DC6B29F
:1035F000064A1268917A054A526810786B46022290
:10360000FEF7BAFD60B14FF0FF30C5E7680000205B
:1036100000000343000083423333034233338341CA
:103620009DF801009DF8001040EA0129B14501DA3A
:103630000020B1E7FA4840684088B9EB600F17DD19
:10364000F74A1268517CF64A526810786B4601229C
:10365000FEF792FD10B14FF0FF309DE79DF800009E
:1036600000F0100020B1FFF77DF96FF0010093E743
:103670005046FFF7E4FCEA4A1268D17AE84A5268F9
:1036800010786B463246FEF777FD10B14FF0FF30F1
:1036900082E799FBF6F0401E8BF8000000202870AE
:1036A000B4422AD0DE48007C00F0080028B3601C39
:1036B0001DF800001DF8041040EA012000B2A8F82F
:1036C0000000E01C1DF80010A01C1DF8000041EADD
:1036D000002000B2A8F80200601D1DF80010201D97
:1036E0001DF8000041EA002000B2A8F80400287884
:1036F00040F008002870A01D84B2B44213D0C8481E
:10370000007C00F0400070B1601C1DF800001DF846
:10371000041040EA012000B23880287840F04000D0
:103720002870A01C84B2B44213D0BD48007C00F0C5
:10373000200070B1601C1DF800001DF8041040EA64
:10374000012000B27880287840F020002870A01C6A
:1037500084B2B44213D0B248007C00F0100070B1C3
:10376000601C1DF800001DF8041040EA012000B2A2
:10377000B880287840F010002870A01C84B2002087
:103780000AE7F8B504460F461646A54890F8240007
:1037900010B94FF0FF30F8BDA148807A10B94FF052
:1037A000FF30F8E79E4A1268917A9D4A5268107875
:1037B0006B460222FEF7E0FC10B14FF0FF30EAE763
:1037C0009DF801009DF8001040EA0125A54203DAAA
:1037D00000203070401EDEE7914840684088B5EB1D
:1037E000600F17DD8E4A1268517C8D4A526810783E
:1037F0006B460122FEF7C0FC10B14FF0FF30CAE764
:103800009DF8000000F0100020B1FFF7ABF86FF05A
:103810000100C0E7E2B2824B1B68D97A804B5B683B
:1038200018783B46FEF7A8FC10B14FF0FF30B2E726
:1038300095FBF4F0401E30700020ACE7014678485C
:1038400080F82210002070477CB50546744949680D
:10385000087801AB04220D21FEF78EFC08B1072089
:103860007CBD9DF80700C0F301109DF8041001F025
:10387000E00140EAE1008DF800009DF80700C0F388
:1038800081009DF8051001F0E00140EAE1008DF8AB
:1038900001009DF8070000F003009DF8061001F0FC
:1038A000E00140EAE1008DF80200002427E01DF865
:1038B000040030B99FED5B0A05EB840080ED000A3F
:1038C0001BE09FED590A05EB840080ED000A0BE038
:1038D00005EB840090ED000ADFED540A20EE200A8B
:1038E00005EB840080ED000A1DF80400401EC0B204
:1038F0000DF804000028EBD100BF601CC4B2032CFB
:10390000D5DB0020ACE7F0B52DED028B83B0064689
:103910000F4600256846FFF797FF002447E056F85A
:10392000241057F82420881A002801DB014600E003
:10393000414200EE101AB8EEC00ADFED3D0A80EEFB
:10394000208A684600EB840090ED000AB5EEC00ABC
:10395000F1EE10FA18D0684600EB8400D0ED000AB2
:1039600088EE200AF7EE000A70EE608AB0EEE80AF0
:103970003048D0ED090AB4EEE00AF1EE10FA15DD98
:103980000120A040054311E02A4890ED070AB4EE5B
:10399000C80AF1EE10FA06DC90ED080AB4EEC80A87
:1039A000F1EE10FA02D20120A0400543641C032C62
:1039B000B5DB284603B0BDEC028BF0BDF0B52DEDB4
:1039C000048B81B006460F460025154949680878E2
:1039D0006B4603220D21FEF7CFFB20B1072001B07B
:1039E000BDEC048BF0BD9DF8000000F01F008DF8C9
:1039F00000009DF8010000F01F008DF801009DF807
:103A0000020000F01F008DF80200002461E056F86B
:103A1000241057F82420881A00280DDB01460CE0FA
:103A200068000020000000007B14AE3E1D5A843F59
:103A30000000804750B90008414200EE101AB8EE6D
:103A4000C00A5FED050A80EE208A1DF8040068B305
:103A5000FE4890ED000AB8EE400ADFEDFD0A80EE68
:103A6000801AF0EE418A05E09FEDFA0A28EE800AFE
:103A7000F0EE408A1DF80400401EC0B20DF80400AC
:103A80000028F1D188EE280AF7EE000A30EE609A9D
:103A9000B0EEC90AED48D0ED060AB4EEE00AF1EE48
:103AA00010FA15DD0120A040054311E0E74890ED34
:103AB000040AB4EEC80AF1EE10FA06DC90ED050A2D
:103AC000B4EEC80AF1EE10FA02D20120A04005437C
:103AD000641C032C9BDB284681E72DE9F04F87B05F
:103AE00005460C46914601208DF8100000208DF807
:103AF0001100D94A1268917CD74A5268107804ABF9
:103B00000222FEF7FAFB20B14FF0FF3007B0BDE80C
:103B1000F08FC82001F0E4FD00208DF81000CE4A9F
:103B20001268D17BCC4A5268107804AB0122FEF7B0
:103B3000E4FB10B14FF0FF30E8E7C74A1268517953
:103B4000C54A5268107804AB0122FEF7D6FB10B1CB
:103B50004FF0FF30DAE7C04A1268917CBE4A5268E3
:103B6000107804AB0122FEF7C8FB10B14FF0FF3014
:103B7000CCE7B94A1268D17DB74A5268107804ABD5
:103B80000122FEF7BAFB10B14FF0FF30BEE7B24A98
:103B900012681179B04A5268107804AB0122FEF71E
:103BA000ACFB10B14FF0FF30B0E70C208DF81000E7
:103BB000A94A12681179A84A5268107804AB012208
:103BC000FEF79BFB10B14FF0FF309FE70F2001F095
:103BD00087FDA148806A407A8DF810009E4A1268DD
:103BE00091789D4A5268107804AB0122FEF785FB5C
:103BF00010B14FF0FF3089E79748806A007A8DF85E
:103C00001000954A12685178934A5268107804ABB4
:103C10000122FEF772FB10B14FF0FF3076E7B9F1E9
:103C2000000F07D08C48806A807A40F0E0008DF861
:103C3000100004E08848806A807A8DF81000864A77
:103C400012689179844A5268107804AB0122FEF719
:103C500054FB10B14FF0FF3058E7B9F1000F07D017
:103C60007D48806AC07A40F0E0008DF8100003E0E3
:103C70007648C07A8DF81000774A1268D179764A72
:103C80005268107804AB0122FEF737FB10B14FF0F9
:103C9000FF303BE7B9F1000F02D0C82001F020FD52
:103CA00040208DF810006C4A126811796A4A5268F7
:103CB000107804AB0122FEF720FB10B14FF0FF306B
:103CC00024E778208DF81000634A12685179624A1F
:103CD0005268107804AB0122FEF70FFB10B14FF0D1
:103CE000FF3013E75949888901F0FAFC00208DF86C
:103CF0001000594A12685179574A5268107804AB3B
:103D00000122FEF7FAFA10B14FF0FF30FEE6524AF8
:103D10001268917A504A5268107804AB0222FEF77A
:103D20002BFA10B14FF0FF30F0E69DF811009DF82E
:103D3000101040EA012B0C209BFBF0F0C6B20020D3
:103D4000A86068602860A06060602060824665E0CE
:103D5000414A1268D17A404A5268107804AB0C226A
:103D6000FEF70AFA10B14FF0FF30CFE69DF81100D0
:103D70009DF8101040EA012000B2ADF808009DF84F
:103D800013009DF8121040EA012000B2ADF80A00BD
:103D90009DF815009DF8141040EA012000B2ADF81E
:103DA0000C00BDF90810206808442060BDF90A1015
:103DB000606808446060BDF90C10A0680844A06009
:103DC0009DF817009DF8161040EA012000B2ADF8EA
:103DD00000009DF819009DF8181040EA012000B27B
:103DE000ADF802009DF81B009DF81A1040EA012072
:103DF00000B2ADF80400BDF900102868084428603E
:103E0000BDF90210686808446860BDF90410A8682C
:103E10000844A8600AF1010000F0FF0AB24597DBF0
:103E20000A48D0F800C02868C117090441EA1041C7
:103E3000070462460023384603F023FC3246002381
:103E4000CDE9020103F01DFC286007E050B900082D
:103E500000B04C4554E3853F68000020F848D0F896
:103E600000C06868C117090441EA104107046246AE
:103E70000023384603F005FC32460023CDE9020159
:103E800003F0FFFB6860EE48D0F800C0A868C117D7
:103E9000090441EA1041070462460023384603F052
:103EA000F0FB32460023CDE9020103F0EAFBA860F3
:103EB000E348D0F804C02168C817000440EA11485C
:103EC0000F04624600233846414603F0DAFB3246CF
:103ED0000023CDE9020103F0D4FB2060D848D0F8DC
:103EE00004C06068C117090441EA10410704624632
:103EF0000023384603F0C5FB32460023CDE902011A
:103F000003F0BFFB6060CE48D0F804C0A068C117C2
:103F1000090441EA1041070462460023384603F0D1
:103F2000B0FB32460023CDE9020103F0AAFBA060FA
:103F3000A068002804DDA068A0F58030A06003E040
:103F4000A06800F58030A0600020DFE538B50446A9
:103F5000BC4890F82400A04201D1002038BD24B311
:103F6000B84890F8250010B94FF0FF30F6E7002070
:103F7000FEF72CFB0020FEF751FCB249C88CFEF77F
:103F8000BEFE00200090AF49496808786B460122C8
:103F90002321FEF7B2F90121AA4880F8241001205C
:103FA000FEF714FBFEF7DEFC13E00020FEF70EFB2D
:103FB000A448007C0090A349496808786B46012218
:103FC0002321FEF79AF900219E4880F82410FEF77D
:103FD000C9FC0020C2E72DE9F04F8DB083460F46A3
:103FE00002200C90974890F8240020B10020FFF7A1
:103FF000ADFF012600E0002603A8FFF7C2F905A8DF
:10400000FFF7DFF901A8FFF700FA02A8FFF722FA8D
:104010008C4890F80AA004A8FFF77EFA002407E075
:10402000002239465846FFF758FD00B902E0641CEB
:10403000022CF5DB00BF022C01D1002528E0002472
:1040400007E0012206A909A8FFF747FD00B902E031
:10405000641C022CF5DB00BF022C01D1002517E007
:1040600006A93846FFF74FFC00F0FF0809A958469B
:10407000FFF7A4FC00F0FF090025B9F1000F01D102
:1040800045F00105B8F1000F01D145F0020500BF70
:10409000FF206C490872FF216A484172C1724FF6D5
:1040A000FF71C181FF218172017401210173BDF88B
:1040B0000C00FEF7B2FE9DF81400FEF76CFEBDF892
:1040C0000400FEF770FDBDF80800FEF718FE50462C
:1040D000FEF73FFB9DF81000FEF730FD16B1012002
:1040E000FFF734FF28460DB0BDE8F08FF8B5044661
:1040F0000D46164616B94FF0FF30F8BD5148807A8C
:1041000010B94FF0FF30F8E720128DF80000E0B250
:104110008DF801009DF8010028444A494968498901
:10412000884202DD4FF0FF30E7E7464A1268117E11
:10413000444A526810786B460222FEF7DEF810B14E
:104140004FF0FF30D9E7EAB23E4B1B68597D3D4B3B
:104150005B6818783346FEF7D0F810B14FF0FF30A7
:10416000CBE70020C9E7F8B504460D46164616B958
:104170004FF0FF30F8BD3348807A10B94FF0FF3070
:10418000F8E720128DF80000E0B28DF801009DF8EC
:10419000010028442B4949684989884202DD4FF0D3
:1041A000FF30E7E7274A1268117E264A52681078E6
:1041B0006B460222FEF7A1F810B14FF0FF30D9E7AD
:1041C000EAB2204B1B68597D1E4B5B68187833465A
:1041D000FDF7D2FF10B14FF0FF30CBE70020C9E769
:1041E0002DE9F04385B005460E46904699461548A0
:1041F00090F8250020B14FF0FF3005B0BDE8F08306
:1042000016B94FF0FF30F8E7002428E0281B1028EB
:1042100001DD102000E0281B87B232193946204604
:10422000FFF764FF10B14FF0FF30E6E701AA39460F
:104230002046FFF798FF38B14FF0FF30DDE7000070
:1042400050B900086800002030193A4601A903F06F
:10425000CDFB10B16FF00100CFE7E01984B2AC42A2
:10426000D4DB4FEA28208DF8000008F0FF008DF81D
:104270000100F94A1268917EF74A526810786B463D
:104280000222FEF73AF810B14FF0FF30B5E70121F6
:10429000F14880F82510A0F826900020ADE70146EF
:1042A000ED4890F824000870002070474FF0FF3070
:1042B000704702464FF0FF30704701464FF0FF3025
:1042C0007047F8B505460F461446002C70D0B5F57A
:1042D000FF5F01DDFF2605E0202D01DA012601E068
:1042E000C5F3471607B90127282C02DD4FF0FF3030
:1042F000F8BDD948407D28BBD74890F8240038B194
:104300000020FFF723FE0121D34880F8201003E0AE
:104310000021D14880F82010CF481630FFF731F83F
:10432000CD481830FFF74DF8CB481A30FFF76DF83D
:10433000C9481C30FFF78EF8C748817A81771F3053
:10434000FFF7EAF80020FEF741F90020FEF76AFCCB
:1043500000208DF80000C04A12689178BE4A526869
:1043600010786B460122FDF7C8FF10B14FF0FF3007
:10437000BEE740208DF80000B74A1268D17BB64AEC
:10438000526810786B460122FDF7B7FF00B165E077
:104390008DF800608DF80170AF4A1268117AAE4A4C
:1043A000526810786B460222FDF7A7FF08B155E06E
:1043B00047E0052001F094F9A748407A072101EB76
:1043C000C000C0B28DF80000A34A1268D179A24A99
:1043D000526810786B460122FDF78FFF00B13DE077
:1043E00020208DF80000012C03D100208DF8010061
:1043F0000EE0052C03DC01208DF8010008E0142CF0
:1044000003DC02208DF8010002E003208DF801009A
:104410009DF80100072101EB8010C0B28DF801006A
:104420008D4A1268917C8C4A526810786B46022241
:10443000FDF763FF00B111E00121874841750020BD
:1044400056E7854A1632002103E0505C00B105E0D2
:10445000491C0C29F9D34FF0FF3049E7FF207E4972
:104460000872FF217C484172C1724FF6FF71C18111
:10447000FF2181720174012101730146887FFEF7DB
:1044800068F97549C88AFEF7C8FC7349087EFEF7CB
:1044900082FC7149488BFEF786FB6F49888BFEF7DB
:1044A0002EFC6D49C87FFEF749FB6B4890F8200051
:1044B00010B10120FFF74AFD002167484175002037
:1044C00016E710B588B002A905A8FFF784FD0446D9
:1044D000032C41D101A8FEF7D3FF9DED050AB8EEEC
:1044E000C00ADDED010A20EE200ABDEEC00A8DED06
:1044F000050A9DED060AB8EEC00ADDED010A20EEC0
:10450000200ABDEEC00A8DED060A9DED070AB8EE41
:10451000C00ADDED010A20EE200ABDEEC00A8DEDD5
:10452000070A05A800F04DFA6846FEF7CEFFBDF871
:104530000010029848430290BDF8001003984843C9
:104540000390BDF8001004984843049002A800F0BE
:10455000CBFA002008B010BD0120FBE7014691F91D
:104560000020002A01DD00201EE091F90020002A31
:1045700001DA042018E091F90120002A01DD012070
:1045800012E091F90120002A01DA05200CE091F9EE
:104590000220002A01DD022006E091F90220002A13
:1045A00001DA062000E00720704710B504462046D7
:1045B000FFF7D4FF0346E01CFFF7D0FF43EAC0003B
:1045C00083B2A01DFFF7CAFF43EA801083B21846EA
:1045D00010BD70B50024FDF7CBFEFEF760FC00288F
:1045E00045D17820FEF7B5F8C4B20CB1012070BDFA
:1045F0007820FEF7A3FAC4B20CB10220F7E76420DA
:10460000FEF77DFBC4B20CB10320F0E700F03EF9E9
:10461000C4B20CB10420EAE71048FFF7C6FF054614
:1046200000F03EF9C4B20CB10520E0E740F273108F
:1046300000F087FDC4B20CB10620D8E7642000F07A
:10464000E9FAC4B20CB10720D1E7FFF73AFF0446FC
:1046500034B10820CBE7000068000020940000205F
:104660000120FFF773FCC4B20CB10920BFE70020A2
:10467000BDE770B52DED0C8B8EB004460D46164689
:10468000B7EE000AF0EE409A9FED7C0AB0EE408A49
:104690009FED7A0AF0EE408A9FED780AB0EE409ADC
:1046A00007A808A90DAB03AACDE9001009A90BA81A
:1046B00000F0A6FE20B101200EB0BDEC0C8B70BD49
:1046C000BDF8200000F4807000287CD09DED030A26
:1046D000B8EEC00ADFED6A0A80EE201AF0EE419AC9
:1046E0009DED040AB8EEC00ADFED650A80EE201ADF
:1046F000B0EE418A9DED050AB8EEC00ADFED600A12
:1047000080EE201AF0EE418A9DED060AB8EEC00A4E
:10471000DFED5B0A80EE201AB0EE419AB8EE000A97
:1047200028EE000A20EE090AF0EE000A69EEA00A5F
:1047300000EEA80A10EE101A084605F025FE41EC1E
:104740001C0BB0EE4C0AF0EE6C0A04F0C5FBB0EEA8
:1047500040BAF0EE60BA9FED4B0B53EC102B51ECCE
:104760001B0B05F051FB41EC1A0B05F003F920601F
:10477000B8EE000A28EE000A20EE080AF0EE000A61
:1047800068EEA00A00EEE80AF7EE000A30EE200A12
:1047900010EE101A084605F0F7FD41EC1C0BB0EEC8
:1047A000000A28EE800A20EE090AF0EE000A69EEFF
:1047B000A00A00EE880A10EE101A084605F0E4FD83
:1047C00041EC1D0B00E054E0B0EE4C1AF0EE6C1A18
:1047D000B0EE4D0AF0EE6D0A04F09AFEB0EE40BA6B
:1047E000F0EE60BA9FED270B53EC102B51EC1B0B36
:1047F00005F00AFB41EC1A0B05F0BCF8286029EE25
:10480000A90A08EE080A08EEE80A09EE490A10EEBD
:10481000101A084605F0B8FD41EC1C0B28EE280ADA
:1048200009EE890AF0EE000A20EE200A10EE101AB6
:10483000084605F0A9FD41EC1D0BB0EE4C1AF0EE58
:104840006C1AB0EE4D0AF0EE6D0A04F061FEB0EEA7
:1048500040BAF0EE60BA9FED0B0B53EC102B51EC0D
:104860001B0B05F0D1FA41EC1A0B05F083F8306010
:1048700001E0022020E700201EE700000000000009
:104880000000804E6666666666A64C4010B5C8237A
:104890004FF48062F74940F6F630FFF7A1FC10BDF7
:1048A00010B586B00446F4A000680390F3A0006839
:1048B0000290F3A000680190F2A00068009004F05C
:1048C000030003A9085C8DF8140003A8C4F3C10118
:1048D000405C8DF8150003A8C4F38111405C8DF88D
:1048E000160004F0030002A9085C8DF8100002A86D
:1048F000C4F3C101405C8DF8110002A8C4F381111A
:10490000405C8DF8120005AA032140F22640FFF713
:10491000EDFB18B14FF0FF3006B010BD04AA032123
:1049200040F22A40FFF7E2FB10B14FF0FF30F3E70F
:10493000019805900098049004F0040058B19DF887
:10494000140040F001008DF814009DF8100040F0B4
:1049500001008DF8100004F0200058B19DF81500FA
:1049600040F001008DF815009DF8110040F00100A5
:104970008DF8110004F4807058B19DF8160040F0D5
:1049800001008DF816009DF8120040F001008DF82E
:10499000120005AA03214FF48860FFF7A7FB10B1AE
:1049A0004FF0FF30B8E704AA032140F23140FFF78F
:1049B0009DFB10B14FF0FF30AEE7B34804810020FB
:1049C000AAE71FB50446B048007A00F0030054F887
:1049D00020000190AC48007A00F0040010B101986A
:1049E00040420190A848007AC0F3C10054F820006A
:1049F0000290A548007A00F0200010B102984042D1
:104A00000290A148007AC0F3811054F8200003906E
:104A10009D48008900F4807010B1039840420390D3
:104A20009A49019880FB0101800F40EA81000190C2
:104A30009649029880FB0110820042EA9170029030
:104A40009249039880FB0110820042EA9170039022
:104A50000198000E8DF800000198000C8DF80100FF
:104A60000198000A8DF802000198C0B28DF8030089
:104A70006A4604214FF47470FFF738FB18B14FF009
:104A8000FF3004B010BD0298000E8DF800000298AF
:104A9000000C8DF801000298000A8DF802000298BF
:104AA000C0B28DF803006A4604214FF47570FFF719
:104AB0001DFB10B14FF0FF30E3E70398000E8DF8B7
:104AC00000000398000C8DF801000398000A8DF88F
:104AD00002000398C0B28DF803006A4604214FF427
:104AE0007670FFF703FBCCE770B588B0064601A8E7
:104AF000FEF7EBFCBDF804000021C90341EA504574
:104B0000C4036148007A00F0030056F820000590C5
:104B10005D48007A00F0040010B10598404205900D
:104B20005948007AC0F3C10056F820000690564854
:104B3000007A00F0200010B10698404206905248DA
:104B4000007AC0F3811056F8200007904E48008983
:104B500000F4807010B10798404207900598C11783
:104B6000A0FB042301FB043100FB0510810041EA96
:104B7000927005900698C117A0FB042301FB043135
:104B800000FB0510810041EA927006900798C1175A
:104B9000A0FB042301FB043100FB0510810041EA66
:104BA000927007900598000E8DF808000598000C8B
:104BB0008DF809000598000A8DF80A000598C0B222
:104BC0008DF80B000698000E8DF80C000698000C6E
:104BD0008DF80D000698000A8DF80E000698C0B2F8
:104BE0008DF80F000798000E8DF810000798000C44
:104BF0008DF811000798000A8DF812000798C0B2CE
:104C00008DF8130002AA0C214FF42570FFF76EFAFD
:104C100008B070BD30B585B004461DA207CA02AB0E
:104C200007C3C82C03DD4FF0FF3005B030BDC820EE
:104C300090FBF4F0401E85B2280A8DF80000E8B21F
:104C40008DF801006A46022140F21620FFF74EFA65
:104C500010B14FF0FF30E8E702AA0C2140F6C12066
:104C6000FFF744FA10B14FF0FF30DEE706488481C9
:104C70000020DAE778B900084CCD6C000CC92C0094
:104C80003656760026466600E007002009E3CA0291
:104C9000FEF2ABC4AAF1DFDFBBAFDFDF0146F948AC
:104CA0008089088000207047F0B52DED028B83B01D
:104CB00006460F4606F0070010B1B7F5C86F05DDD0
:104CC0004FF0FF3003B0BDEC028BF0BD00EE107A68
:104CD000B8EE400ADFEDEC0A80EE208A01A8FEF76C
:104CE00070FB9DF80400022806D0042817D008287D
:104CF00028D010284CD138E09FEDE40A28EE000AB5
:104D0000BCEEC00A10EE100A84B29FEDE10A28EE54
:104D1000000ABCEEC00A10EE100A85B23BE09FED1F
:104D2000DD0A28EE000ABCEEC00A10EE100A84B2BA
:104D30009FEDD90A28EE000ABCEEC00A10EE100A58
:104D400085B228E09FEDD50A28EE000ABCEEC00A25
:104D500010EE100A84B29FEDD20A28EE000ABCEED3
:104D6000C00A10EE100A85B215E09FEDCE0A28EEBB
:104D7000000ABCEEC00A10EE100A84B29FEDCA0A07
:104D800028EE000ABCEEC00A10EE100A85B202E05E
:104D90004FF0FF3096E700BF20128DF80800E0B218
:104DA0008DF8090028128DF80A00E8B28DF80B0082
:104DB00006F00100A0B102AA02214FF4EA70FFF749
:104DC00095F910B14FF0FF307CE70DF10A02022196
:104DD0004FF49270FFF78AF910B14FF0FF3071E78E
:104DE00006F00200A0B102AA02214FF4EC70FFF716
:104DF0007DF910B14FF0FF3064E70DF10A02022196
:104E00004FF49470FFF772F910B14FF0FF3059E78B
:104E100006F00400A0B102AA02214FF4EE70FFF7E1
:104E200065F910B14FF0FF304CE70DF10A02022195
:104E30004FF49670FFF75AF910B14FF0FF3041E789
:104E400000203FE738B504460020009004F0010040
:104E500020B19DF8000040F03000009004F0020006
:104E600020B19DF8000040F00C00009004F0040018
:104E700020B19DF8000040F0030000906A46012137
:104E80004FF4A470FFF732F938BD38B50446012C51
:104E900001DA012402E0042C00DD0424601EC0B20B
:104EA00000906A46012140F24F10FFF71FF938BD0C
:104EB00038B50446052094FBF0F085B228128DF831
:104EC0000000E8B28DF801006A4602214FF4EF704D
:104ED000FFF70CF938BD38B50446052094FBF0F017
:104EE00085B228128DF80000E8B28DF801006A46FC
:104EF00002214FF4ED70FFF7F9F838BDF8B505461B
:104F00000E464FF47A7095FBF0F000FB06F4200E8D
:104F10008DF80000200C8DF80100200A8DF80200A9
:104F2000E0B28DF803006A4604214FF4AE70FFF73B
:104F3000DDF8F8BD38B50446052094FBF0F084B2E6
:104F400020128DF80000E0B28DF801006A460221BF
:104F50004FF4AD70FFF7CAF838BD38B504460520E8
:104F600094FBF0F084B220128DF80000E0B28DF8CE
:104F700001006A4602214FF4AC70FFF7B7F838BD64
:104F800038B5044614B94FF0FF3038BD6A460421E5
:104F90004FF45870FFF7E7F810B14FF0FF30F4E727
:104FA0009DF8000000069DF8011040EA01409DF8C0
:104FB000021040EA01209DF8031008432060002001
:104FC000E3E738B50446200E8DF80000200C8DF87C
:104FD0000100200A8DF80200E0B28DF803006A4655
:104FE00004214FF45870FFF781F838BD38B50446F6
:104FF00014B94FF0FF3038BD6A4604214FF4717088
:10500000FFF7B1F810B14FF0FF30F4E79DF8000062
:1050100000069DF8011040EA01409DF8021040EAA8
:1050200001209DF80310084300EB80008000206001
:105030000020E0E738B504461420B4FBF0F4200E5D
:105040008DF80000200C8DF80100200A8DF8020078
:10505000E0B28DF803006A4604214FF47170FFF747
:1050600045F838BD38B5044604B320208DF800005B
:1050700028208DF8010030208DF8020038208DF8AE
:10508000030018E0E00700200000484300008046CD
:1050900000004046000000460000C045000080457A
:1050A00000004045000000450000C044A322042148
:1050B000684602F0E6FC6A46042140F69E20FFF7AF
:1050C00015F8FDF74FFC38BD38B5044664B1C02073
:1050D0008DF80000C2208DF80100C4208DF8020078
:1050E000C6208DF8030004E08B220421684602F0FC
:1050F000C8FC6A46042140F69820FEF7F7FFFDF74A
:1051000031FC38BD3EB504466CB1FDA1D1E90020AB
:105110008968CDE9002002916A4609214FF4976021
:10512000FEF7E4FF3EBDF9A2D2E900109268CDE996
:10513000010200916A4609214FF49760FEF7D6FFFD
:10514000F0E73EB5044602208DF80000CA208DF835
:105150000100E3208DF8020009208DF803006A4663
:1051600004216820FEF7C2FFA3208DF8000004F0A0
:10517000400048B1C0208DF80100C8208DF8020021
:10518000C2208DF8030006E0A3208DF801008DF801
:1051900002008DF8030004F4C07048B1C4208DF8FB
:1051A0000400CC208DF80500C6208DF8060006E02E
:1051B000A3208DF804008DF805008DF80600A320CB
:1051C0008DF807008DF808008DF809006A460A215D
:1051D00040F6A720FEF78AFF04F0030018B1202054
:1051E0008DF8000002E0D8208DF800006A46012109
:1051F00040F6B620FEF77AFF04F0200018B1012037
:10520000FFF780FF02E00020FFF77CFF04F4C0708E
:1052100008B304F4807060B1B2208DF800008B20D8
:105220008DF80100B6208DF802009B208DF8030058
:105230000BE0B0208DF8000080208DF80100B42034
:105240008DF8020090208DF803006A46042140F694
:10525000A220FEF74BFF04F0010020B3F8208DF8E8
:1052600000006A4601214FF40B60FEF73FFFFA2170
:105270000720FFF719FD0720FFF7E4FD0120FFF7E6
:1052800004FE6420FFF714FE4FF4FA70FFF723FECC
:10529000C821A148FFF732FE2820FFF74BFE0A2065
:1052A000FFF75BFE08E0D8208DF800006A46012178
:1052B0004FF40B60FEF71AFF04F0020018B1D9207A
:1052C0008DF8000002E0D8208DF800006A46012128
:1052D00040F23D70FEF70AFF04F0040018B101200F
:1052E000FFF7F2FE02E00020FFF7EEFE04F01000F0
:1052F00018B10120FFF7B6FE02E00020FFF7B2FE72
:1053000044F0080085494881FDF72CFB00208349C3
:10531000887304F0400018B10846807B801D8873B4
:1053200004F4C07020B17D48807B801D7B49887368
:1053300004F0140020B17948807B103077498873DD
:1053400004F0030020B17548807B001D7349887309
:1053500000203EBD0146714840890880002070470A
:105360002DE9F0410446E07800F0C006E07800F056
:105370003F05607800F0010098B1EF102846E9176A
:1053800005EB5171C910A5EBC101491C01F0FF08E3
:105390006248006820B1614841460268384690473B
:1053A00000BF607800F0080030B15C48406818B178
:1053B000B0115A4A516888470020BDE8F08110B505
:1053C00086B0044656A207CA03AB07C357A207CA52
:1053D0008DE80700012C09D0022C0ED103AA0B2165
:1053E00040F68220FEF782FE06B010BD6A460B2111
:1053F00040F68220FEF77AFEF6E74FF0FF30F3E743
:105400002DE9F04F8DB00746884615469946DDE9EF
:10541000166B0024002030804049887B5A4605A93D
:10542000FEF7AFF918B1601E0DB0BDE8F08F3B4834
:10543000807A00F01400002861D09DF81400000666
:105440009DF8151040EA01409DF8161040EA012031
:105450009DF81710084328609DF8180000069DF875
:10546000191040EA01409DF81A1040EA01209DF809
:105470001B10084368609DF81C0000069DF81D1075
:1054800040EA01409DF81E1040EA01209DF81F10DF
:105490000843A8609DF8200000069DF8211040EA0E
:1054A00001409DF8221040EA01209DF82310084396
:1054B000E86004F11000C4B2286800140190686824
:1054C00000140290A86800140390E8680014049087
:1054D00001984043029901FB0100039901FB01007F
:1054E000049901FB010ABAF1706F02DBBAF1885F1F
:1054F00022DDFDF737FA00203080401E94E721E0DE
:10550000B8AAB38DB4980D355D000000B8AAAAAA58
:10551000B088C3C5C700000009E3CA02E007002045
:10552000D8B1B9F38BA391B609B4D900DAB1B9F304
:105530008BA391B6DAB4DA00B6F9000040F48070BB
:10554000308000BF3448807A00F0400020B305A9C5
:10555000601C085C095D40EA012000B2A8F8000068
:1055600005A9E01C095C05AAA01C105C41EA00200A
:1055700000B2A8F8020005A9601D095C201D105C9E
:1055800041EA002000B2A8F80400A01DC4B2B6F998
:10559000000040F0080030801F48408900F4C070CF
:1055A00008B305A9601C085C095D40EA012000B24F
:1055B000388005A9E01C095C05AAA01C105C41EA22
:1055C000002000B2788005A9601D095C201D105CD8
:1055D00041EA002000B2B880A01DC4B2B6F90000B4
:1055E00040F0700030800C48807A00F0030018B161
:1055F00005A90819FFF7B4FE4846FDF720FD002075
:1056000012E7014604480160002070470146024845
:105610004160002070470000E007002010B50446FC
:105620006FF0040000F092F9E11704EB5171C1F33F
:10563000C701394A11701046007800EB4001C1EBF8
:10564000C0104FF6FF7101EAC0003449088010BD58
:105650000146314A12784A434FF0E0235A61002252
:105660009A611A46126942F001021A6100BF4FF0B6
:10567000E022106900F001021AB100F48032002A21
:10568000F5D04FF0E022126922F001024FF0E02342
:105690001A6100229A6170470146204A12884A43E3
:1056A0004FF0E0235A6100229A611A46126942F0D3
:1056B00001021A6100BF4FF0E022106900F0010200
:1056C0001AB100F48032002AF5D04FF0E0221269BE
:1056D00022F001024FF0E0231A6100229A61704724
:1056E00070B504464FF4077094FBF0F0C6B24FF467
:1056F000077094FBF0F100FB114085B205E04FF418
:105700000770FFF7C9FF701EC6B2002EF7D115B1A2
:105710002846FFF7C1FF70BD9E000020A0000020BA
:1057200000BF704700BF4C4A128802F04002002AB6
:10573000F9D0C2B2484B9A80704710B588B0044681
:105740000121084600F0CCFC0121102000F022FDD0
:1057500007220921414800F0B0FA07220A213F48F8
:1057600000F0ABFA4FF4C060069002208DF81C00E8
:105770008DF81D0000208DF81E0001208DF81F00FF
:1057800006A9364800F00EFA02940020ADF80C008D
:10579000ADF80E00ADF81000ADF814000C20ADF817
:1057A000120002A92C4801F0F2FC01212A4801F064
:1057B00076FD012240F22551274801F026FE2520E2
:1057C0008DF8040003208DF805008DF806000120F7
:1057D0008DF8070001A800F06CF808B010BD10B5F6
:1057E00040F225511C4801F04BFE10B31A4801F05D
:1057F00085FDC4B21A48008800F40040C8B91848B2
:10580000008800F4804060B10A2C03D000201449C5
:10581000088020E01248008840F4004010490880C9
:1058200019E00D2C06D10E48008840F480400C4948
:10583000088010E00A480088C0F30D0009490C54A4
:1058400007480088401C0649088008460088C72889
:1058500001DD0020088010BD001001400000024062
:10586000A8000020F00700200948804709480047A9
:10587000FEE7FEE7FEE7FEE7FEE7FEE7FEE7FEE700
:10588000FEE7FEE704480549054A064B704700005D
:105890006D0400088901000818090020180F002075
:1058A000180B0020180B002032490143324A1160C6
:1058B000704770B5002100230F22C4781CB32E4C12
:1058C000246804F4E064C4F5E064C4F30721C1F182
:1058D0000404E3B20A4144789C40E1B28478144065
:1058E00021430C07210E254C05786155047804F0FE
:1058F0001F050124AC4005786D11AD0005F1E025D0
:10590000C5F8004109E0047804F01F050124AC400B
:105910001B4D0678761145F8264070BD194A0A409D
:105920000243154B1B1F1A60704739B1124A121DF2
:1059300012680243104B1B1D1A6006E00E4A121D2E
:10594000126882430C4B1B1D1A607047042808D153
:105950004FF0E021096941F004014FF0E0221161AC
:1059600007E04FF0E021096921F004014FF0E02247
:10597000116170470000FA050CED00E000E400E062
:1059800080E100E080FFFF1F002041490860091D01
:105990000860091D0860091D08603E483C49143133
:1059A0000860704700213A498279002A3AD00A46B5
:1059B000126803689A430B461A600A1D126803684E
:1059C0009A430B1D1A60027911440A6803681A434E
:1059D0000A602F4A0832126803689A432C4B083336
:1059E0001A601A1D126803689A43294B0C331A6017
:1059F0004279102A0ED11A1F126803681A43244BE9
:105A000008331A601A1D126803681A43204B0C33BE
:105A10001A600DE01E49427911440A6803681A436E
:105A20000A6005E0027911440A6803689A430A6033
:105A300070470021016001710C21417100218171C9
:105A400070471349103109680143114A103211603F
:105A50007047014600200E4A143212680A400AB10B
:105A6000012000E0002070470949143108607047A8
:105A700001460020064A143212680A400AB1012089
:105A800000E00020704702491431086070470000B0
:105A9000003C0140FFFF7F0010B504469848844257
:105AA00008D10121084600F086FB0021012000F00A
:105AB00082FB76E09348844208D10121022000F065
:105AC0007AFB0021022000F076FB6AE08E488442D7
:105AD00008D10121042000F06EFB0021042000F019
